:100000000C9406010C942E010C942E010C942E01DC
:100010000C942E010C942E010C942E010C942E01A4
:100020000C942E010C94AF0C0C942E010C94BB0874
:100030000C94660B0C942E010C942E010C942E0142
:100040000C942D0F0C942E010C94B2100C942E01D4
:100050000C942E010C942E010C942E010C942E0164
:100060000C942E010C942E0148696768207261740B
:100070006520667261676D656E7465642066696C83
:1000800065210053616D706C652072617465207428
:100090006F6F206869676821004D6F726520746812
:1000A000616E20313620626974732070657220732E
:1000B000616D706C652100205761726E696E6720FA
:1000C00073746572656F2066696C6521004E6F748C
:1000D000206D6F6E6F2F73746572656F2100436FB3
:1000E0006D7072657373696F6E206E6F74207375B7
:1000F00070706F72746564004E6F74206120766159
:100100006C69642057415600436F756C646E2774A8
:10011000206F70656E2066696C65200052656164B1
:1001200079210043616E2774206F70656E20726FB5
:100130006F742064697221002C20747970652069C5
:100140007320464154005573696E67207061727464
:100150006974696F6E20004E6F2076616C6964204F
:1001600046415420706172746974696F6E21004356
:1001700061726420696E69742E206661696C6564C1
:100180002100467265652052414D3A200057617644
:10019000654843207769746820002C20000A0D53BD
:1001A0004420492F4F206572726F723A2000000080
:1001B0000000240027002A0000000000250028007D
:1001C0002B00000000002300260029000404040482
:1001D00004040404020202020202030303030303F1
:1001E00001020408102040800102040810200102CE
:1001F00004081020000000070002010000030406AC
:100200000000000000000000B90C5D1211241FBEA8
:10021000CFEFD8E0DEBFCDBF11E0A0E0B1E0E2E675
:10022000F9E202C005900D92A239B107D9F716E0A4
:10023000A2E9B1E001C01D92A03DB107E1F712E0D3
:10024000CCE0D2E004C02297FE010E94AB14C8307B
:10025000D107C9F70E9497120C94AF140C940000B8
:10026000FB01DC018D9181341CF08B350CF4805E38
:10027000619161341CF06B350CF4605E861B61117A
:1002800089F3990B0895FB01DC014150504030F097
:100290008D910190801919F40020B9F7881B990BF2
:1002A0000895CF93DF93EB01DC0190E020E03EE284
:1002B0008C91803269F0283029F4FE01E90FF11D9C
:1002C00030839F5FFE01E90FF11D8C9180839F5F5A
:1002D0002F5F11962B3061F7C90FD11D1882DF9166
:1002E000CF910895FC0185859685A785B089858382
:1002F0009683A783B0871186128613861486089585
:100300002F923F924F925F926F927F928F929F9225
:10031000AF92BF92CF92DF92EF92FF920F931F9313
:10032000DF93CF93CDB7DEB7A5970FB6F894DEBFB6
:100330000FBECDBF2C01FC01748B638B442321F4D1
:100340006624772443013AC0453008F007C1242FC2
:1003500030E0A4E0220F331FAA95E1F722553E4F6B
:10036000CB0140E050E060E070E04E010894811C59
:10037000911C8401F0E1EF2EF12C0E945407882398
:1003800009F4ECC0898190E08F779070892B09F097
:10039000E5C0F40184859585A685B78584369105E9
:1003A000A105B10508F4DAC0608471848284938465
:1003B000611471048104910409F4D0C0F2018389AD
:1003C0009489B401A3012BE030E01E010894211CA4
:1003D000311C8101E5E2EE2EF12C0E9454078823A6
:1003E00009F4BCC089819A818050924009F0B6C05E
:1003F000F1015581552309F4B1C083819481892B82
:1004000009F4ACC04281442309F4A8C0242F30E091
:10041000C901019782239323892B09F09FC0F20120
:1004200055874083F101238534852115310519F065
:1004300040E050E005C0F101218D328D438D548D97
:10044000F2012183328343835483F101E680F780F4
:10045000F201F68AE58AF101A380B480CC24DD2480
:10046000A60CB71CC81CD91CF201A686B786C08A88
:10047000D18AF101658170E080E090E00E941A1459
:100480006A0D7B1D8C1D9D1DF201678B708F818F06
:10049000928F35E0EE0CFF1C3A95E1F72FEF31E03B
:1004A000E20EF31EEF2CFF24E69400E010E06E0D48
:1004B0007F1D801F911F6187728783879487F10159
:1004C00080859185009721F09C0140E050E005C0B7
:1004D000F101258936894789508DF201238F348FA8
:1004E000458F568F81859285A385B485681A790AD0
:1004F0008A0A9B0A620E731E841E951EF1012281D8
:1005000030E040E050E0C401B3010E945814C9013A
:10051000DA01F20185839683A783B087853FFFE0E8
:100520009F07F0E0AF07F0E0BF0710F48CE006C0D3
:10053000855F9F4FA040B04028F480E1F201828B9C
:1005400081E00DC0F10181A192A1A3A1B4A1F201AA
:10055000878B908FA18FB28F80E2F1CF80E0A5963C
:100560000FB6F894DEBF0FBECDBFCF91DF911F91C4
:100570000F91FF90EF90DF90CF90BF90AF909F9042
:100580008F907F906F905F904F903F902F90089545
:100590002F923F924F925F926F927F928F929F9293
:1005A000AF92BF92CF92DF92EF92FF920F931F9381
:1005B000CF93DF933C011B01DC011996AD90BD90F8
:1005C000CD90DC901C97F5011FEF412E11E0512ECC
:1005D0004A205B2060E072E0641975094A016417E3
:1005E000750708F44B01D3011196ED90FD900D9124
:1005F0001C911497940140E050E0D801C7018A197A
:100600009B09AC09BD0982179307A407B50718F425
:1006100047018E1A9F0AF30180818770B9E0D69452
:10062000C794B794A794BA95D1F7C189D28982307B
:1006300049F44F89588D698D7A8D4A0D5B1D6C1D6B
:100640007D1D2CC0E8806E2D70E080E090E0D3012D
:1006500015962D913D914D915C9118972250304007
:10066000404050400E941A14AB01BC0189859A8514
:10067000AB85BC85480F591F6A1F7B1FFF24089458
:10068000E108F1080027F7FC0095102FEA20FB2075
:100690000C211D214E0D5F1D601F711FD30151964E
:1006A000ED91FC91529783899489920181017401A3
:1006B0000E945407882319F42FEF3FEF01C09401E3
:1006C000C901DF91CF911F910F91FF90EF90DF90C3
:1006D000CF90BF90AF909F908F907F906F905F90E2
:1006E0004F903F902F900895EF92FF920F931F939A
:1006F000DF93CF9300D000D000D0CDB7DEB7FC01A0
:100700008A019B01423051056105710508F45AC008
:1007100085819681A781B0850296A11DB11D4817DC
:1007200059076A077B0708F04DC08289803231F58E
:10073000B7E07695679557954795BA95D1F7868531
:100740009785A089B189480F591F6A1F7B1F98019F
:10075000220F331F220F331F3170838994898E013A
:100760000D5F1F4FE4E0EE2EF12C0E94540788230A
:1007700049F12B813C814D815E8128C0803111F58A
:10078000452F562F672F772786859785A089B189B2
:10079000480F591F6A1F7B1F9801220F331F3170AA
:1007A000838994898E010F5F1F4FE2E0EE2EF12CBA
:1007B0000E945407882331F089819A819C0140E08E
:1007C00050E004C020E030E040E050E0B901CA0150
:1007D00026960FB6F894DEBF0FBECDBFCF91DF9146
:1007E0001F910F91FF90EF900895AF92BF92CF921B
:1007F000DF92EF92FF920F931F93CF93DF936C01E1
:10080000EE24FF24870110C0F60180815E01880F6D
:10081000B82EE501C0E0CE01AA2797FDA095BA2F1A
:10082000E80EF91E0A1F1B1FC6010E947403AB01CC
:10083000BC01411551056105710531F7B701C801CA
:10084000DF91CF911F910F91FF90EF90DF90CF90AC
:10085000BF90AF9008950F931F93CF93DF93EC0158
:100860008B01FB0182898031B1F482E088831D868F
:100870001E861F86188A85899689A0E0B0E025E04B
:10088000880F991FAA1FBB1F2A95D1F789839A83C6
:10089000AB83BC8316C0803211F080E021C083E0BE
:1008A0008883FB014789508D618D728D4D875E87EE
:1008B0006F87788BC8010E94F50369837A838B83E5
:1008C0009C831A8B098B8D859E85AF85B8898D8316
:1008D0009E83AF83B88719861A861B861C8681E0A3
:1008E000DF91CF911F910F9108950F931F93CF9395
:1008F000DF93EC018B01FA01DB0152968C91803180
:1009000008F446C08081882309F442C0853E09F47A
:100910003FC084899589A0E0B0E0BC0155274427F9
:10092000828D938DA0E0B0E0482B592B6A2B7B2B56
:100930004D875E876F87788B838590E08871907094
:10094000009759F481E08883848D958DA68DB78DAD
:1009500089839A83AB83BC830BC04097C9F484E03E
:100960008883C8010E94F50369837A838B839C8303
:100970001A8B098B8D859E85AF85B8898D839E8363
:10098000AF83B88719861A861B861C8681E001C052
:1009900080E0DF91CF911F910F910895AF92BF92A8
:1009A000CF92DF92EF92FF920F931F93CF93DF933B
:1009B000EC017A018B0120C0D801C7010196A11D6D
:1009C000B11D86017501A816B906CA06DB06A1F09D
:1009D0008A89803129F028EF3FEF4FEF5FE004C0B4
:1009E00028EF3FEF40E050E080E0A216B306C406D7
:1009F000D50678F081E00DC0CE01B801A7010E94B4
:100A000074035B016C016115710581059105A1F607
:100A100080E0DF91CF911F910F91FF90EF90DF90D9
:100A2000CF90BF90AF900895CF93DF93EC01888172
:100A3000877091F04D855E856F85788941155105E8
:100A40006105710549F089899A890E94CE0488233D
:100A500019F0888188608883DF91CF9108955F9233
:100A60006F927F928F929F92AF92BF92CF92DF92BE
:100A7000EF92FF920F931F93CF93DF93EC01698462
:100A80007A848B849C84460D571D681D791D89814D
:100A90009A81AB81BC8184179507A607B70708F434
:100AA0005BC0E989FA89E08049875A876B877C8730
:100AB0005880852D8770823009F450C0FF2400E0F3
:100AC00010E0E9E07695679557954795EA95D1F757
:100AD000CB01BA01A80197010E94581459016A017B
:100AE00049E096948794779467944A95D1F7C40126
:100AF000B301A80197010E945814A21AB30AC40AAC
:100B0000D50A53FE23C08D819E81AF81B8858A0DA1
:100B10009B1DAC1DBD1D8D839E83AF83B8871EC0FA
:100B20004D815E816F81788589899A890E947403DD
:100B30006D837E838F8398870894A108B108C108CC
:100B4000D108611571058105910531F0A114B10439
:100B5000C104D10429F702C080E001C081E0DF9127
:100B6000CF911F910F91FF90EF90DF90CF90BF90AA
:100B7000AF909F908F907F906F905F900895AF920D
:100B8000BF92CF92DF92EF92FF920F931F93CF937A
:100B9000DF935C016A017B0100E010E004C0EC0E11
:100BA000FD1E0C0F1D1F0C151D05D8F4A601401BC2
:100BB000510BC501B7010E94C802EC0118161906B5
:100BC0001CF097FF0EC00AC0AC01662757FD609568
:100BD000762FC5010E942F05882309F72FEF3FEFDD
:100BE00001C09801C901DF91CF911F910F91FF9032
:100BF000EF90DF90CF90BF90AF900895EF92FF926B
:100C00000F931F93CF93DF938C01EB01FC01808145
:100C10008770823010F42FEF1EC07B010AC08E3225
:100C200041F08B8590E0887190700097A1F040971B
:100C300091F0C801B70140E250E00E94BF05282FA3
:100C4000803231F48881882329F0853E91F3E7CF03
:100C500018160CF420E0822FDF91CF911F910F9195
:100C6000FF90EF9008958F929F92AF92BF92CF9294
:100C7000DF92EF92FF920F931F93DF93CF93CDB745
:100C8000DEB7AD970FB6F894DEBF0FBECDBF4C01F7
:100C90008B016A01FB0185859685A785B0898583CF
:100CA0009683A783B0871186128613861486AEE0DA
:100CB000EA2EF12CEC0EFD1E5E010894A11CB11C65
:100CC00012C0C701B5010E945101C501B6010E94C1
:100CD0003001892B41F4F80161897289C401A701AF
:100CE0000E94750407C0C801B7010E94FE051816CE
:100CF00044F380E0AD960FB6F894DEBF0FBECDBFD3
:100D0000CF91DF911F910F91FF90EF90DF90CF90E7
:100D1000BF90AF909F908F900895FF920F931F9375
:100D2000CF93DF93EC010E94750F8B01FF24FA949F
:100D30000AC00E94750F601B710B6D52714018F054
:100D40008DE08C830EC0FEBC0DB407FEFDCF9EB5BA
:100D50009F3F79F39E3F11F481E004C080E18C83D2
:100D60009D8380E0DF91CF911F910F91FF900895B7
:100D7000FF920F931F93CF93DF938B010E94750F08
:100D8000EB01FF24FA9409C00E94750F6C1B7D0BC8
:100D90000617170710F480E008C0FEBC0DB407FE6C
:100DA000FDCF8EB58F3F81F781E0DF91CF911F910D
:100DB0000F91FF900895CF93DF93EC018E818823EC
:100DC000D9F08FEF8EBD2F8138854FEF04C00DB461
:100DD00007FEFDCF4EBD2F5F3F4FC90101978150E8
:100DE0009240A8F338872F830DB407FEFDCF8AE029
:100DF00061E00E945E101E82DF91CF910895BF9244
:100E0000CF92DF92EF92FF920F931F938C01B62E39
:100E100069017A010E94DB068AE060E00E945E10B0
:100E2000C8016CE271E00E94B8068B2D80648EBD13
:100E30000DB407FEFDCF28E130E0D701C601022E38
:100E400004C0B695A795979587950A94D2F78EBD5D
:100E50000DB407FEFDCF285030408FEF283F3807F4
:100E600061F7BB2011F485E906C088E0B81611F4DB
:100E700087E801C08FEF8EBD0DB407FEFDCF9FEF59
:100E80002FEF2EBD0DB407FEFDCF8EB587FF04C03A
:100E9000992311F09150F5CF1F910F91FF90EF9092
:100EA000DF90CF90BF9008958F929F92AF92BF92A4
:100EB000CF92DF92EF92FF920F931F93CF93DF9326
:100EC000EC015A016B014901E114F10409F475C008
:100ED000C701820F931F8150924008F070C08E812D
:100EE000882371F088819981AA81BB8148175907AD
:100EF0006A077B0729F48F8198858816990618F56B
:100F0000A882B982CA82DB828B85833039F089E07E
:100F1000AA0CBB1CCC1CDD1C8A95D1F7CE0161E16B
:100F2000A60195010E94FF06882319F083E08C83B7
:100F300046C0CE010E948D06882309F440C0188661
:100F40001F8281E08E838FEF8EBD8F8198852FEF7A
:100F500005C00DB407FEFDCF2EBD0196881599057D
:100F6000C0F398878F83D701119720E030E09FEF7F
:100F70000BC00DB407FEFDCF8EB5F801E20FF31FD5
:100F800080839EBD2F5F3F4F2A173B0790F30DB420
:100F900007FEFDCF8EB5A00FB11F8C932F81388532
:100FA0002E0D3F1D38872F838985882319F0205007
:100FB000324018F0CE010E94DB0681E001C080E0E3
:100FC000DF91CF911F910F91FF90EF90DF90CF9025
:100FD000BF90AF909F908F900895FF920F931F93B3
:100FE000CF93DF93EC01F62E8AE061E00E94381087
:100FF0008AE061E00E945E108BE061E00E943810A0
:101000008CE060E00E9438108DE061E00E943810B2
:1010100083E58CBD80E09FEF9EBD0DB407FEFDCF44
:101020008F5F8A30C9F760E00E945E1080E090E038
:101030002FEF2EBD0DB407FEFDCF3EB5019632E079
:1010400081309307B1F710E0CE0160E020E030E09E
:1010500040E050E00E94FF06082F813041F01A3036
:1010600021F481E08C830D831CC01F5FEDCFCE0186
:1010700068E02AEA31E040E050E00E94FF06982F45
:101080008130A1F480E02FEF2EBD0DB407FEFDCF1F
:101090009EB58F5F8430C1F79A3A29F089E08C833E
:1010A0009D8380E062C082E08B8707C082FF02C020
:1010B0000B8703C082E08C839D830E94750F8B0198
:1010C000CE0167E320E030E040E050E00E94FF0600
:1010D0008B85823029F020E030E040E050E004C011
:1010E00020E030E040E050E4CE0169E20E94FF06DB
:1010F000882349F00E94750F601B710B615D77407A
:10110000F8F286E00EC08B85823011F5CE016AE3DD
:1011100020E030E040E050E00E94FF06882319F014
:1011200085E08C83BECF8FEF8EBD0DB407FEFDCF63
:101130008EB5807C803C11F483E08B8780E09FEF4C
:101140009EBD0DB407FEFDCF2EB58F5F8330C1F776
:101150008CB58C7F8CBDFF2019F48DB581608DBD61
:101160008AE061E00E945E1081E0DF91CF911F91E3
:101170000F91FF9008951F920F920FB60F921124B6
:101180002F933F938F939F93AF93BF93EF93FF93CF
:10119000E0919201F0919301309709F4CEC0209133
:1011A00096053091970580919405909195052817A3
:1011B000390708F44BC080919C05813029F52091B6
:1011C0009805309199053093970520939605809165
:1011D0009A0590919B0590939505809394052459C9
:1011E000314019F484E993E002C084E991E09093DE
:1011F00099058093980582E080939C0580916F000B
:10120000846080936F0022C0833059F480916F0016
:101210008D7F80936F00128610929301109292013D
:101220008CC086819781A085B1850097A105B10505
:1012300009F483C083859485A585B6850196A11D93
:10124000B11D83879487A587B68777C08581E09194
:101250009605F0919705803149F4818180589081FD
:101260003296F0939705E093960506C08191F0932E
:101270009705E093960590E05A985C985B9A5B9886
:101280005B9A5B985C9A5B9A5B985B9A5B9887FF2A
:1012900002C05C9A01C05C985B9A5B9886FF02C0B2
:1012A0005C9A01C05C985B9A5B9885FF02C05C9A6F
:1012B00001C05C985B9A5B9884FF02C05C9A01C095
:1012C0005C985B9A5B9883FF02C05C9A01C05C9853
:1012D0005B9A5B9882FF02C05C9A01C05C985B9A43
:1012E0005B9881FF02C05C9A01C05C985B9A5B9836
:1012F00080FF02C05C9A01C05C985B9A5B9897FF84
:1013000002C05C9A01C05C985B9A5B98892F96FF3B
:1013100002C05C9A01C05C985B9A5B9885FF02C032
:101320005C9A01C05C985B9A5B9884FF02C05C9AEF
:1013300001C05C985B9A5B985A9AFF91EF91BF91BC
:10134000AF919F918F913F912F910F900FBE0F9072
:101350001F90189508959A01AB01243F81E038074A
:1013600080E0480780E0580728F424EF31E040E0AF
:1013700050E00CC0213583EC380780E0480780E05E
:10138000580720F020E533EC40E050E0F89486B5B3
:101390008823E9F760E074E284EF90E00E9458143B
:1013A000309389002093880078940895EFE6F0E068
:1013B00080818D7F8083E0919201F091930112866C
:1013C000109293011092920108954F925F926F9242
:1013D0007F928F929F92AF92BF92CF92DF92EF92C5
:1013E000FF920F931F93CF93DF932C01F894FC018E
:1013F0008285882309F451C040705E7F4030F2E05E
:101400005F07F0E06F07F0E07F0720F440E052E074
:1014100060E070E0F201C785D08969847A848B84AA
:101420009C84E680F7800085118589819A81AB8153
:10143000BC81E60CF71C081D191D8E159F05A00721
:10144000B10710F47C018D015A016B01E416F50619
:101450000607170710F457016801A614B704C8045B
:10146000D90440F0B601A501461957096809790960
:10147000CE0106C0CE010E947201CE01B601A501C7
:101480000E942F05882349F0EA18FB080C091D0962
:10149000F201E682F782008711877894DF91CF917D
:1014A0001F910F91FF90EF90DF90CF90BF90AF9082
:1014B0009F908F907F906F905F904F900895AF9224
:1014C000BF92CF92DF92EF92FF920F931F93DF9321
:1014D000CF93CDB7DEB728970FB6F894DEBF0FBE17
:1014E000CDBF8C016B01B42EA52EFC0186819781A6
:1014F000A085B1850097A105B10579F57E01089415
:10150000E11CF11CD8011F968D919C915097B70159
:1015100048E050E00E94BF050897E1F4C70160E091
:1015200071E044E050E00E9443014D815E816F8193
:101530007885009731F4F801468357836087718777
:101540000CC0D8011F968D919C9150970E942F0539
:101550008823C1F66FEF7FEF40C0F801678570897F
:10156000DB0119968D919C911A97917040E052E0A1
:10157000481B590B2B2D3A2DC901FC01481759075F
:1015800008F4FA01D80116962D913D914D915C9188
:101590001997CF01A0E0B0E0281739074A075B0789
:1015A00008F4F901CB01B601AF010E94BF05BC01EF
:1015B0001816190694F49C01442737FD4095542FC2
:1015C000F80186819781A085B185821B930BA40BBE
:1015D000B50B86839783A087B187CB0128960FB67A
:1015E000F894DEBF0FBECDBFCF91DF911F910F9159
:1015F000FF90EF90DF90CF90BF90AF9008950F9342
:101600001F93CF93DF93EC0190939301809392010A
:1016100004E911E0B80140E052E00E945F0A1816A8
:1016200019060CF04EC01093970500939605800F95
:10163000911F909395058093940504E913E0CE01E2
:10164000B80140E052E00E945F0A97FD3AC0109353
:10165000990500939805800F911F90939B058093A7
:101660009A0581E080939C058A87529A539A549AEE
:101670005A9A559A5D981092800089E08093810073
:10168000688170E080E090E029813A814B815C8143
:101690000E941A149B01AC0160E074E284EF90E0B8
:1016A0000E945814309389002093880081E090E0D4
:1016B00090938B0080938A0080916F00826080936A
:1016C0006F00DF91CF911F910F9108951F920F929C
:1016D0000FB60F9211242F933F934F935F936F9305
:1016E0007F938F939F93AF93BF93EF93FF938091DB
:1016F0006F008B7F80936F0080919C05823021F575
:1017000078946091980570919905809192019091DB
:10171000930140E052E00E945F0AF89420919805FE
:10172000309199051816190644F4280F391F309383
:101730009B0520939A0581E005C030939B0520937B
:101740009A0583E080939C05FF91EF91BF91AF9143
:101750009F918F917F916F915F914F913F912F91C9
:101760000F900FBE0F901F901895CF92DF92EF92BF
:10177000FF920F931F93DF93CF93CDB7DEB762979E
:101780000FB6F894DEBF0FBECDBF7C016B01CB015D
:101790000E941405C6018E010F5F1F4FB8014CE077
:1017A00050E00E94BF050C9709F092C0C80165E0A7
:1017B00071E044E050E00E944301009709F088C0C6
:1017C000CE0109966AE071E044E050E00E944301D6
:1017D000009709F07DC08CC0C8016FE071E044E063
:1017E00050E00E944301009709F072C08AC00231A4
:1017F000110561F4C601BE016F5F7F4FA8010E9411
:10180000BF058017910709F063C002C01A821982D0
:1018100089819A81019739F40231110539F4898956
:101820009A89892B19F08EED90E050C08B81F701D9
:101830008083833018F08DEC90E048C0823021F432
:1018400087EB90E00E94A80C1F85F70115831131EA
:1018500018F089E990E03AC02D813E814F8158858A
:10186000F7012183328343835483608170E080E0F9
:1018700090E00E941A146534FCEA7F07F0E08F07BD
:10188000F0E09F07A8F4212F30E040E050E00E94F4
:101890001A1423E096958795779567952A95D1F741
:1018A000693828E5720721E0820720E0920718F0E6
:1018B00083E890E00BC065547C4A8040904040F142
:1018C000F601808183FD24C088E690E00E94A80C88
:1018D00080E062960FB6F894DEBF0FBECDBFCF9109
:1018E000DF911F910F91FF90EF90DF90CF900895BF
:1018F000C601B80148E050E00E94BF05089741F7D3
:101900006BCF0D811E810031110509F070CF72CFB0
:10191000F701D08AC7861386148615861686128626
:10192000168217821086118681E0D3CFCF93DF9382
:10193000EC0107C089EB96E040E050E00E9486137E
:101940002196FE0164916623A9F7DF91CF91089556
:101950000E94960C89EB96E00E94CE1308951F9288
:101960000F920FB60F9211240F900FBE0F901F9081
:1019700018951092A1051092A3051092A605109239
:10198000A8051092BB051092C8051092DB058EEEDB
:1019900095E00E94AA090895CF93DF93EC0180910E
:1019A000F805882321F08EEE95E00E94D6098BED94
:1019B00095E068EC75E0AE010E943306882351F48F
:1019C00088E091E00E94960C89EB96E0BE010E94AF
:1019D000D51211C08EEE95E06BED75E00E94B50B4F
:1019E000882329F488EF90E00E94A80C04C08EEEB2
:1019F00095E00E94FF0ADF91CF91089590910B0628
:101A000080917D019817C1F087E0989FC001112453
:101A10008C5E9E4F0E94CC0C409128065091290666
:101A200060912A0670912B068EEE95E00E94AB091C
:101A300080910B0680937D018091F805882319F42D
:101A40008FEF80937D0161E070E080E090E00E9484
:101A5000830F80910E0690910F06019690930F06CA
:101A600080930E06459708F436C180E00E94161058
:101A70009C01F4E035952795FA95E1F7309300063F
:101A80002093FF05809105069091060628173907D7
:101A900059F130930606209305062F3231058CF05C
:101AA00080910C06882369F480910B068F5F6FE0AC
:101AB0000E94391490930B0681E080930C061092DB
:101AC0000D0680910D068F5F80930D06833318F00D
:101AD00081E080930C062A31310534F480910C06A4
:101AE000813011F410920C0681E00E9416109C01C6
:101AF000E4E035952795EA95E1F7309302062093C7
:101B0000010680910706909108062817390709F405
:101B10004AC04091260650912706FA01EE0FFF1F9A
:101B2000E25EF94F31832083809120069091210657
:101B300020911E0630911F06820F931F20912206CE
:101B400030912306820F931F2091240630912506A1
:101B5000820F931F969587959695879590931D066E
:101B600080931C064F5F5F4F437050705093270661
:101B7000409326062EE531E0829FA001839F500D01
:101B8000929F500D112444585A4E60E070E04093EB
:101B900028065093290660932A0670932B068EEE32
:101BA00095E00E94AB098091010690910206909306
:101BB0000806809307068091180690911906A09157
:101BC0001A06B0911B060196A11DB11D809318063F
:101BD00090931906A0931A06B0931B066091FF0517
:101BE000709100067093040660930306CB0147973B
:101BF0000B9740F4109218061092190610921A06CC
:101C000010921B068CE190E0861B970B9B01220F24
:101C1000331F181619062CF4C901860F971F8C97CD
:101C200008C0260F371F88279927821B930B8458DB
:101C30009F4F9C01442737FD4095542F2093140655
:101C40003093150640931606509317068091180698
:101C500090911906A0911A06B0911B062817390712
:101C60004A075B0760F56D3171054CF01092100664
:101C70001092110610921206109213060CC080E109
:101C800097E2A0E0B0E08093100690931106A09335
:101C90001206B09313064091100650911106609100
:101CA0001206709113068EEE95E00E94E5091092DF
:101CB00018061092190610921A0610921B068091AF
:101CC00003069091040690930A06809309061092E9
:101CD0000F0610920E0608958091A1058823C9F081
:101CE0008DE991E00E94960C89EB96E06091A10548
:101CF00040E150E00E9486138AE991E00E94960C30
:101D000089EB96E06091A20540E150E00E94E51366
:101D1000FFCF08951F93DF93CF9300D0CDB7DEB7E9
:101D200089EB96E040E850E760E070E00E94EF1039
:101D30008DE891E00E94A80C82E891E00E94960C48
:101D40002091CC063091CD06CE01019621153105AA
:101D500019F4805D964002C0821B930B9A8389839D
:101D600069817A8189EB96E04AE050E00E94FF1396
:101D700082E061E00E94381083E061E00E94381048
:101D800084E061E00E94381085E061E00E94381034
:101D90008DE061E00E9438108DE995E060E00E94DE
:101DA000ED07882339F48FE691E00E94A80C0E9489
:101DB0006C0EFFCF8DE995E00E94DB0681E08093F9
:101DC000A60510E089EA95E06DE975E0412F0E94D3
:101DD0008001882351F41F5F1530A1F787E591E05A
:101DE0000E94A80C0E946C0EFFCF86E491E00E9436
:101DF000960C89EB96E0612F4AE050E00E94861332
:101E000088E391E00E94960C89EB96E06091BB0517
:101E10004AE050E00E94E51388EC95E069EA75E03D
:101E20000E942B04882329F483E291E00E94A80CED
:101E3000FFCF8CE191E00E94A80C1092B00087E0E7
:101E40008093B100809170008160809370000F904A
:101E50000F90CF91DF911F9108951F920F920FB6AF
:101E60000F9211242F933F938F939F93AF93BF9320
:101E70008091300690913106A0913206B0913306E0
:101E8000309134060196A11DB11D232F2D5F2D37F2
:101E900020F02D570196A11DB11D2093340680938B
:101EA000300690933106A0933206B09333068091AA
:101EB0002C0690912D06A0912E06B0912F0601962A
:101EC000A11DB11D80932C0690932D06A0932E0684
:101ED000B0932F06BF91AF919F918F913F912F911A
:101EE0000F900FBE0F901F9018958FB7F894209108
:101EF00030063091310640913206509133068FBF43
:101F0000B901CA0108959B01AC017FB7F894809193
:101F10002C0690912D06A0912E06B0912F0666B545
:101F2000A89B05C06F3F19F00196A11DB11D7FBF91
:101F3000BA2FA92F982F8827860F911DA11DB11D9B
:101F400062E0880F991FAA1FBB1F6A95D1F7BC01D9
:101F50002DC0FFB7F89480912C0690912D06A0918A
:101F60002E06B0912F06E6B5A89B05C0EF3F19F0ED
:101F70000196A11DB11DFFBFBA2FA92F982F882749
:101F80008E0F911DA11DB11DE2E0880F991FAA1FA0
:101F9000BB1FEA95D1F7861B970B885E9340C8F26A
:101FA000215030404040504068517C4F2115310550
:101FB0004105510571F60895789484B5826084BD19
:101FC00084B5816084BD85B5826085BD85B581603D
:101FD00085BDEEE6F0E0808181608083E1E8F0E09D
:101FE000808182608083808181608083E0E8F0E08E
:101FF000808181608083E1EBF0E080818460808378
:10200000E0EBF0E0808181608083EAE7F0E08081AE
:10201000846080838081826080838081816080830E
:102020008081806880831092C1000895982F8E303F
:1020300008F09E50977080917E018295880F880FDE
:10204000807C892B80937C0080917A0080648093CF
:102050007A0080917A0086FDFCCF20917800409133
:102060007900942F80E030E0282B392BC9010895A6
:10207000482F50E0CA0180529E4FFC0124914453E6
:102080005E4FFA0184918823C1F0E82FF0E0EE0F53
:10209000FF1FE255FE4FA591B491662341F49FB70F
:1020A000F8948C91209582238C939FBF08959FB7BD
:1020B000F8948C91822B8C939FBF0895482F50E009
:1020C000CA018C509E4FFC012491CA0180529E4F40
:1020D000FC01349144535E4FFA019491992309F421
:1020E00040C0222331F1233021F4809180008F778A
:1020F00005C0243031F4809180008F7D8093800072
:1021000018C0213019F484B58F7704C0223021F42F
:1021100084B58F7D84BD0DC0263021F48091B00040
:102120008F7705C0273029F48091B0008F7D809390
:10213000B000E92FF0E0EE0FFF1FE854FE4FA5912D
:10214000B491662341F49FB7F8948C913095832322
:102150008C939FBF08959FB7F8948C91832B8C9399
:102160009FBF08951F920F920FB60F9211242F93C5
:102170003F934F935F936F937F938F939F93AF930F
:10218000BF93EF93FF934091C600E091B506F091A5
:10219000B606CF01019660E870E00E9445149C01EC
:1021A0008091B7069091B8062817390739F0EB5C93
:1021B000F94F40833093B6062093B506FF91EF9117
:1021C000BF91AF919F918F917F916F915F914F914F
:1021D0003F912F910F900FBE0F901F9018955F9217
:1021E0006F927F928F929F92AF92BF92CF92DF9227
:1021F000EF92FF920F931F93CF93DF93EC013A017D
:102200004B01413482E458078FE0680780E078078B
:102210000CF07FC060E874E88EE190E0A4019301C7
:102220000E947A142150304040405040CA01B90108
:1022300022E030E040E050E00E947A1459016A0147
:10224000A6019501209530954095509594E0220F78
:10225000331F441F551F9A95D1F760E074E284EF55
:1022600090E00E947A14CA01B9012FEF30E040E0FB
:1022700050E00E941A14A40193010E947A14C9012B
:1022800081509F4F181619061CF4522E5A9403C001
:1022900055245394521A60E079E08DE390E0A40154
:1022A00093010E947A142150304040405040CA01AE
:1022B000B90122E030E040E050E00E947A1420951D
:1022C00030954095509583E0220F331F441F551FD2
:1022D0008A95D1F760E074E284EF90E00E947A146E
:1022E000CA01B9012FEF30E040E050E00E941A141B
:1022F000A40193010E947A14C90181509F4F1816BE
:1023000019061CF4822F815002C081E0821B8515C2
:1023100000F5E885F98581E090E00A8802C0880F21
:10232000991F0A94E2F7808360E079E08DE390E002
:10233000A40193010E947A14215030404040504043
:10234000CA01B90122E030E040E050E00E947A1476
:1023500004C0E885F98510829501EC81FD81308308
:10236000EE81FF812083EA85FB85208141E050E0FA
:10237000CA010E8402C0880F991F0A94E2F7282B25
:102380002083EA85FB852081CA010F8402C0880F63
:10239000991F0A94E2F7282B2083EA85FB85808128
:1023A000088802C0440F551F0A94E2F7842B8083EB
:1023B000DF91CF911F910F91FF90EF90DF90CF9021
:1023C000BF90AF909F908F907F906F905F90089597
:1023D000DC011296ED91FC911397E058FF4F81912B
:1023E000919180589F4F20813181821B930B60E82F
:1023F00070E00E9445140895DC011296ED91FC9165
:102400001397EE57FF4F2081318192918291E058CE
:10241000F0408217930719F42FEF3FEF05C0E20F4A
:10242000F31F8081282F30E0C9010895CF93DF93F7
:10243000DC011296ED91FC911397EF01CE57DF4F1F
:1024400048815981E058FF4F80819181E058F040E8
:102450008417950719F42FEF3FEF0CC0E40FF51F19
:102460002081CA01019660E870E00E9445149983BA
:10247000888330E0C901DF91CF910895DC01129685
:10248000ED91FC911397EE57FF4F808191819293CC
:1024900082930895FC01A085B18521898C9190E0FB
:1024A000022E02C0959587950A94E2F780FFF6CF39
:1024B0000484F585E02D6083089583E891E090938E
:1024C000BA068093B90685E396E09093BC068093A4
:1024D000BB0685EC90E09093BE068093BD0684EC2D
:1024E00090E09093C0068093BF0680EC90E09093BC
:1024F000C2068093C10681EC90E09093C40680935D
:10250000C30686EC90E09093C6068093C50684E0EF
:102510008093C70683E08093C80687E08093C9064E
:1025200085E08093CA0681E08093CB0608950E94DF
:10253000DC0F0E948A0E0E94FE0CFDCF0F931F93AA
:10254000CF93DF938C01EB0109C02196D801ED9167
:10255000FC910190F081E02DC80109956881662306
:10256000A1F7DF91CF911F910F910895EF92FF9204
:102570000F931F93CF93DF938C017B01EA010CC073
:10258000D7016D917D01D801ED91FC910190F08111
:10259000E02DC80109952197209791F7DF91CF9100
:1025A0001F910F91FF90EF900895DC01ED91FC9148
:1025B0000280F381E02D099508952F923F924F926A
:1025C0005F926F927F928F929F92AF92BF92CF92C3
:1025D000DF92EF92FF920F931F93DF93CF93CDB7CC
:1025E000DEB7A0970FB6F894DEBF0FBECDBF1C01BB
:1025F0006A017B01411551056105710549F440E30C
:1026000050E060E070E020E030E00E94981356C097
:10261000882499245401422E55246624772401E00D
:1026200010E00C0F1D1F080D191DC701B601A301F5
:1026300092010E945814F80160830894811C911C37
:10264000A11CB11CC701B601A30192010E9458143C
:10265000C901DA016C017D01C114D104E104F10466
:10266000F1F681E0E82EF12CEC0EFD1EE80CF91CD1
:102670003E010894611C711CD501C4010197A10998
:10268000B1096C01C818D90816C0F601EE0DFF1D7E
:1026900040814A3010F4405D01C0495C552747FD38
:1026A0005095652F752FC10120E030E00E949813EE
:1026B0000894E108F1086E147F0439F7A0960FB66C
:1026C000F894DEBF0FBECDBFCF91DF911F910F9168
:1026D000FF90EF90DF90CF90BF90AF909F908F9042
:1026E0007F906F905F904F903F902F900895DC0106
:1026F0002115310541F4ED91FC910190F081E02D1F
:10270000642F099508950E94DD120895EF92FF92BB
:102710000F931F939A01E62EFF2400E010E0B8010A
:10272000A7010E9477131F910F91FF90EF900895DA
:10273000EF92FF920F931F93CF93DF93EC017A01F7
:102740008B012115310541F4E881F9810190F08177
:10275000E02D642F09951BC02A303105B1F477FFB5
:1027600010C04DE250E060E070E020E030E00E94F8
:10277000981310950095F094E094E11CF11C011D54
:10278000111DCE01B801A7012AE00E94DD12DF91E0
:10279000CF911F910F91FF90EF9008950F931F938A
:1027A0008C014DE050E060E070E020E030E00E94FD
:1027B0009813C8014AE050E060E070E020E030E0AB
:1027C0000E9498131F910F910895CF92DF92EF927C
:1027D000FF920F931F938C019A01C62EDD24EE24E5
:1027E000FF24B701A6010E947713C8010E94CE13EF
:1027F0001F910F91FF90EF90DF90CF900895CF92AF
:10280000DF92EF92FF920F931F938C016B019A015D
:10281000EE24D7FCE094FE2CB701A6010E94981389
:10282000C8010E94CE131F910F91FF90EF90DF908F
:10283000CF900895629FD001739FF001829FE00DB9
:10284000F11D649FE00DF11D929FF00D839FF00D2F
:10285000749FF00D659FF00D9927729FB00DE11DDB
:10286000F91F639FB00DE11DF91FBD01CF011124B8
:102870000895991B79E004C0991F961708F0961BDC
:10288000881F7A95C9F78095089597FB092E07262A
:102890000AD077FD04D049D006D000201AF47095F4
:1028A00061957F4F0895F6F7909581959F4F089514
:1028B000A1E21A2EAA1BBB1BFD010DC0AA1FBB1F44
:1028C000EE1FFF1FA217B307E407F50720F0A21BB6
:1028D000B30BE40BF50B661F771F881F991F1A9423
:1028E00069F760957095809590959B01AC01BD014D
:1028F000CF01089597FB092E05260ED057FD04D071
:10290000D7DF0AD0001C38F45095409530952195BA
:102910003F4F4F4F5F4F0895F6F790958095709514
:1029200061957F4F8F4F9F4F0895AA1BBB1B51E1AD
:1029300007C0AA1FBB1FA617B70710F0A61BB70B2F
:10294000881F991F5A95A9F780959095BC01CD01D4
:102950000895EE0FFF1F0590F491E02D0994F8946F
:02296000FFCFA7
:10296200646174610052494646005741564500660B
:102972006D74200030312E5741560030322E5741AF
:10298200560030332E5741560030342E57415600F0
:1029920030352E5741560030362E574156003037CB
:1029A2002E5741560030382E5741560030392E5797
:1029B20041560031302E5741560031312E57415683
:1029C2000031322E5741560031332E5741560031D5
:1029D200342E5741560031352E57415600FF010023
:1029E2000000004A129E12B612E81116123E12FCA4
:0229F2001100D2
:00000001FF
