:100000000C9406010C942E010C942E010C942E01DC
:100010000C942E010C942E010C942E010C942E01A4
:100020000C942E010C9451010C942E010C94380B5D
:100030000C94E50D0C942E010C942E010C942E01C1
:100040000C94370F0C942E010C94BE100C940511D7
:100050000C942E010C942E010C942E010C942E0164
:100060000C942E010C942E014E6F74206120766149
:100070006C69642057415600436F756C646E277439
:10008000206F70656E2066696C6520005265616442
:1000900079210043616E2774206F70656E20726F46
:1000A0006F742064697221002C2074797065206956
:1000B0007320464154005573696E672070617274F5
:1000C0006974696F6E20004E6F2076616C696420E0
:1000D00046415420706172746974696F6E210043E7
:1000E00061726420696E69742E206661696C656452
:1000F0002100467265652052414D3A2000576176D5
:10010000654843207769746820002C20000A0D534D
:100110004420492F4F206572726F723A200048695F
:100120006768207261746520667261676D656E74C0
:1001300065642066696C65210053616D706C652093
:100140007261746520746F6F206869676821004D63
:100150006F7265207468616E203136206269747335
:10016000207065722073616D706C6521002057618D
:10017000726E696E672073746572656F2066696C54
:100180006521004E6F74206D6F6E6F2F73746572F2
:10019000656F2100436F6D7072657373696F6E20B8
:1001A0006E6F7420737570706F72746564000000F8
:1001B0000000240027002A0000000000250028007D
:1001C0002B00000000002300260029000404040482
:1001D00004040404020202020202030303030303F1
:1001E00001020408102040800102040810200102CE
:1001F00004081020000000070002010000030406AC
:1002000000000000000000005B017C1211241FBEF2
:10021000CFEFD8E0DEBFCDBF11E0A0E0B1E0E4E772
:10022000F9E202C005900D92A039B107D9F716E0A6
:10023000A0E9B1E001C01D92AD3DB107E1F712E0C8
:10024000CCE0D2E004C02297FE010E94B414C83072
:10025000D107C9F70E94CC120C94B8140C9400007A
:10026000FB01DC018D9181341CF08B350CF4805E38
:10027000619161341CF06B350CF4605E861B61117A
:1002800089F3990B0895FB01DC014150504030F097
:100290008D910190801919F40020B9F7881B990BF2
:1002A00008951F920F920FB60F9211240F900FBE58
:1002B0000F901F9018951092940110929601109231
:1002C000990110929B011092AE011092BB01109205
:1002D000CE0181EE91E00E94270C0895CF93DF9329
:1002E000EC018091EB01882321F081EE91E00E94E6
:1002F000560C8EEC91E06BEB71E0AE010E94A6080B
:10030000882351F488E790E00E94200F8AEB96E062
:10031000BE010E943B1411C081EE91E06EEC71E0D1
:100320000E94340E882329F488E690E00E94300F62
:1003300004C081EE91E00E947E0DDF91CF9108957F
:100340009091FE0180917D019817C1F087E0989F00
:10035000C00111248C5E9E4F0E946E0140911A02D2
:1003600050911B0260911C0270911D0281EE91E080
:100370000E942B0C8091FE0180937D018091EB0106
:10038000882319F48FEF80937D0161E070E080E0B5
:1003900090E00E948D0F80910002909101020196E1
:1003A00090930102809300020B9708F42BC180E028
:1003B0000E9421109C01F4E035952795FA95E1F70C
:1003C0003093F3012093F2018091F8019091F901AB
:1003D0002817390701F13093F9012093F8012F32E2
:1003E000310584F08091FF018823A9F48091FE01FA
:1003F0008F5F6FE00E945D149093FE0181E0809317
:10040000FF0109C02A31310534F48091FF018130A8
:1004100011F41092FF0181E00E9421109C01E4E0A0
:1004200035952795EA95E1F73093F5012093F4018E
:100430008091FA019091FB012817390709F44AC00D
:100440004091180250911902FA01EE0FFF1FE05F70
:10045000FD4F3183208380911202909113022091ED
:10046000100230911102820F931F209114023091DB
:100470001502820F931F2091160230911702820FEE
:10048000931F969587959695879590930F028093E5
:100490000E024F5F5F4F43705070509319024093AC
:1004A000180224EF31E0829FA001839F500D929F9C
:1004B000500D112448515C4F60E070E040931A02E7
:1004C00050931B0260931C0270931D0281EE91E019
:1004D0000E942B0C8091F4019091F5019093FB0107
:1004E0008093FA0180910A0290910B02A0910C0274
:1004F000B0910D020196A11DB11D80930A02909347
:100500000B02A0930C02B0930D026091F201709166
:10051000F3017093F7016093F601CB0147970B97B6
:1005200040F410920A0210920B0210920C021092E8
:100530000D028CE190E0861B970B9B01220F331F6D
:10054000181619062CF4C901860F971F8C9708C03E
:10055000260F371F88279927821B930B84589F4F9C
:100560009C01442737FD4095542F20930602309379
:100570000702409308025093090280910A02909169
:100580000B02A0910C02B0910D02281739074A07FF
:100590005B0760F56D3171054CF01092020210920C
:1005A000030210920402109205020CC080E197E24F
:1005B000A0E0B0E08093020290930302A0930402B3
:1005C000B09305024091020250910302609104022F
:1005D0007091050281EE91E00E94650C10920A0272
:1005E00010920B0210920C0210920D028091F601F3
:1005F0009091F7019093FD018093FC01109201020C
:10060000109200020895809194018823C9F08DE032
:1006100091E00E94200F8AEB96E06091940140E106
:1006200050E00E94AC138AE091E00E94200F8AEB18
:1006300096E06091950140E150E00E94BE13FFCF2B
:1006400008951F93DF93CF9300D0CDB7DEB78AEB29
:1006500096E040E850E760E070E00E944E118DEFB8
:1006600090E00E94300F82EF90E00E94200F2091D6
:10067000D9063091DA06CE0101962115310519F41B
:100680008D5D964002C0821B930B9A83898369819A
:100690007A818AEB96E04AE050E00E941C1482E0E6
:1006A00061E00E94431083E061E00E94431084E017
:1006B00061E00E94431085E061E00E9443108DE0FC
:1006C00061E00E94431080E991E060E00E94650AC9
:1006D000882339F48FED90E00E94300F0E940303CD
:1006E000FFCF80E991E00E944E0981E0809399015B
:1006F00010E08CE991E060E971E0412F0E94F30382
:10070000882351F41F5F1530A1F787EC90E00E9419
:10071000300F0E940303FFCF86EB90E00E94200F72
:100720008AEB96E0612F4AE050E00E94AC1388EA21
:1007300090E00E94200F8AEB96E06091AE014AE0C3
:1007400050E00E94BE138BEB91E06CE971E00E94D7
:100750009E06882329F483E990E00E94300FFFCFA2
:100760008CE890E00E94300F1092B00087E08093F8
:10077000B100809170008160809370000F900F90A5
:10078000CF91DF911F910895CF93DF93EB01DC01AF
:1007900090E020E03EE28C91803269F0283029F42C
:1007A000FE01E90FF11D30839F5FFE01E90FF11D8E
:1007B0008C9180839F5F2F5F11962B3061F7C90F5B
:1007C000D11D1882DF91CF910895FC018585968512
:1007D000A785B08985839683A783B0871186128603
:1007E0001386148608952F923F924F925F926F92D4
:1007F0007F928F929F92AF92BF92CF92DF92EF92B1
:10080000FF920F931F93DF93CF93CDB7DEB7A597DA
:100810000FB6F894DEBF0FBECDBF2C01FC01748B68
:10082000638B442321F46624772443013AC0453086
:1008300008F007C1242F30E0A4E0220F331FAA954F
:10084000E1F722553E4FCB0140E050E060E070E020
:100850004E010894811C911C8401F0E1EF2EF12CD3
:100860000E94CC09882309F4ECC0898190E08F773D
:100870009070892B09F0E5C0F40184859585A685E3
:10088000B78584369105A105B10508F4DAC0608406
:10089000718482849384611471048104910409F445
:1008A000D0C0F20183899489B401A3012BE030E028
:1008B0001E010894211C311C8101E5E2EE2EF12C71
:1008C0000E94CC09882309F4BCC089819A81805098
:1008D000924009F0B6C0F1015581552309F4B1C029
:1008E00083819481892B09F4ACC04281442309F4AB
:1008F000A8C0242F30E0C901019782239323892BBC
:1009000009F09FC0F20155874083F10123853485AA
:100910002115310519F040E050E005C0F101218DAD
:10092000328D438D548DF20121833283438354836E
:10093000F101E680F780F201F68AE58AF101A380F1
:10094000B480CC24DD24A60CB71CC81CD91CF20131
:10095000A686B786C08AD18AF101658170E080E001
:1009600090E00E943E146A0D7B1D8C1D9D1DF201BE
:10097000678B708F818F928F35E0EE0CFF1C3A955C
:10098000E1F72FEF31E0E20EF31EEF2CFF24E694A7
:1009900000E010E06E0D7F1D801F911F6187728740
:1009A00083879487F10180859185009721F09C01D0
:1009B00040E050E005C0F101258936894789508D16
:1009C000F201238F348F458F568F81859285A385C1
:1009D000B485681A790A8A0A9B0A620E731E841EFD
:1009E000951EF101228130E040E050E0C401B301E6
:1009F0000E947C14C901DA01F20185839683A783E2
:100A0000B087853FFFE09F07F0E0AF07F0E0BF074A
:100A100010F48CE006C0855F9F4FA040B04028F4E2
:100A200080E1F201828B81E00DC0F10181A192A1F0
:100A3000A3A1B4A1F201878B908FA18FB28F80E226
:100A4000F1CF80E0A5960FB6F894DEBF0FBECDBF04
:100A5000CF91DF911F910F91FF90EF90DF90CF909A
:100A6000BF90AF909F908F907F906F905F904F90CE
:100A70003F902F9008952F923F924F925F926F92E6
:100A80007F928F929F92AF92BF92CF92DF92EF921E
:100A9000FF920F931F93CF93DF933C011B01DC0167
:100AA0001996AD90BD90CD90DC901C97F5011FEF8D
:100AB000412E11E0512E4A205B2060E072E0641963
:100AC00075094A016417750708F44B01D3011196A3
:100AD000ED90FD900D911C911497940140E050E031
:100AE000D801C7018A199B09AC09BD098217930770
:100AF000A407B50718F447018E1A9F0AF3018081F5
:100B00008770B9E0D694C794B794A794BA95D1F7F3
:100B1000C189D289823049F44F89588D698D7A8D87
:100B20004A0D5B1D6C1D7D1D2CC0E8806E2D70E094
:100B300080E090E0D30115962D913D914D915C910F
:100B4000189722503040404050400E943E14AB0164
:100B5000BC0189859A85AB85BC85480F591F6A1FE2
:100B60007B1FFF240894E108F1080027F7FC00959B
:100B7000102FEA20FB200C211D214E0D5F1D601F50
:100B8000711FD3015196ED91FC91529783899489FD
:100B90009201810174010E94CC09882319F42FEF7E
:100BA0003FEF01C09401C901DF91CF911F910F91D7
:100BB000FF90EF90DF90CF90BF90AF909F908F907D
:100BC0007F906F905F904F903F902F900895EF929D
:100BD000FF920F931F93DF93CF9300D000D000D0EC
:100BE000CDB7DEB7FC018A019B014230510561059A
:100BF000710508F45AC085819681A781B085029657
:100C0000A11DB11D481759076A077B0708F04DC0A1
:100C10008289803231F5B7E076956795579547958B
:100C2000BA95D1F786859785A089B189480F591F54
:100C30006A1F7B1F9801220F331F220F331F317051
:100C4000838994898E010D5F1F4FE4E0EE2EF12C15
:100C50000E94CC09882349F12B813C814D815E8122
:100C600028C0803111F5452F562F672F77278685AD
:100C70009785A089B189480F591F6A1F7B1F98016A
:100C8000220F331F3170838994898E010F5F1F4FAC
:100C9000E2E0EE2EF12C0E94CC09882331F089810C
:100CA0009A819C0140E050E004C020E030E040E048
:100CB00050E0B901CA0126960FB6F894DEBF0FBE08
:100CC000CDBFCF91DF911F910F91FF90EF900895CD
:100CD000AF92BF92CF92DF92EF92FF920F931F934A
:100CE000CF93DF936C01EE24FF24870110C0F6013F
:100CF00080815E01880FB82EE501C0E0CE01AA27F1
:100D000097FDA095BA2FE80EF91E0A1F1B1FC601FA
:100D10000E94E705AB01BC01411551056105710554
:100D200031F7B701C801DF91CF911F910F91FF906B
:100D3000EF90DF90CF90BF90AF9008950F931F93E7
:100D4000CF93DF93EC018B01FB0182898031B1F4F9
:100D500082E088831D861E861F86188A858996896B
:100D6000A0E0B0E025E0880F991FAA1FBB1F2A95BD
:100D7000D1F789839A83AB83BC8316C0803211F08C
:100D800080E021C083E08883FB014789508D618D1D
:100D9000728D4D875E876F87788BC8010E946806C9
:100DA00069837A838B839C831A8B098B8D859E85BF
:100DB000AF85B8898D839E83AF83B88719861A86DD
:100DC0001B861C8681E0DF91CF911F910F910895C2
:100DD0000F931F93CF93DF93EC018B01FA01DB019B
:100DE00052968C91803108F446C08081882309F4A2
:100DF00042C0853E09F43FC084899589A0E0B0E0F7
:100E0000BC0155274427828D938DA0E0B0E0482B8C
:100E1000592B6A2B7B2B4D875E876F87788B838559
:100E200090E088719070009759F481E08883848DF8
:100E3000958DA68DB78D89839A83AB83BC830BC0B8
:100E40004097C9F484E08883C8010E9468066983DA
:100E50007A838B839C831A8B098B8D859E85AF85C6
:100E6000B8898D839E83AF83B88719861A861B86BF
:100E70001C8681E001C080E0DF91CF911F910F912E
:100E80000895AF92BF92CF92DF92EF92FF920F93AD
:100E90001F93CF93DF93EC017A018B0120C0D8011F
:100EA000C7010196A11DB11D86017501A816B906DD
:100EB000CA06DB06A1F08A89803129F028EF3FEFCE
:100EC0004FEF5FE004C028EF3FEF40E050E080E0EC
:100ED000A216B306C406D50678F081E00DC0CE0197
:100EE000B801A7010E94E7055B016C01611571055E
:100EF00081059105A1F680E0DF91CF911F910F91BF
:100F0000FF90EF90DF90CF90BF90AF900895CF9378
:100F1000DF93EC018881877091F04D855E856F8548
:100F20007889411551056105710549F089899A89CA
:100F30000E944107882319F0888188608883DF91A7
:100F4000CF9108955F926F927F928F929F92AF920E
:100F5000BF92CF92DF92EF92FF920F931F93CF93A6
:100F6000DF93EC0169847A848B849C84460D571D41
:100F7000681D791D89819A81AB81BC818417950791
:100F8000A607B70708F45BC0E989FA89E0804987BA
:100F90005A876B877C875880852D8770823009F44B
:100FA00050C0FF2400E010E0E9E076956795579582
:100FB0004795EA95D1F7CB01BA01A80197010E94A4
:100FC0007C1459016A0149E0969487947794679458
:100FD0004A95D1F7C401B301A80197010E947C147E
:100FE000A21AB30AC40AD50A53FE23C08D819E817A
:100FF000AF81B8858A0D9B1DAC1DBD1D8D839E8361
:10100000AF83B8871EC04D815E816F8178858989E5
:101010009A890E94E7056D837E838F839887089461
:10102000A108B108C108D1086115710581059105B4
:1010300031F0A114B104C104D10429F702C080E049
:1010400001C081E0DF91CF911F910F91FF90EF9050
:10105000DF90CF90BF90AF909F908F907F906F90D8
:101060005F900895AF92BF92CF92DF92EF92FF927E
:101070000F931F93CF93DF935C016A017B0100E024
:1010800010E004C0EC0EFD1E0C0F1D1F0C151D05FD
:10109000D8F4A601401B510BC501B7010E943B05C6
:1010A000EC01181619061CF097FF0EC00AC0AC011F
:1010B000662757FD6095762FC5010E94A2078823F9
:1010C00009F72FEF3FEF01C09801C901DF91CF91E0
:1010D0001F910F91FF90EF90DF90CF90BF90AF9056
:1010E0000895EF92FF920F931F93CF93DF938C019C
:1010F000EB01FC0180818770823010F42FEF1EC05D
:101100007B010AC08E3241F08B8590E0887190702F
:101110000097A1F0409791F0C801B70140E250E07C
:101120000E943208282F803231F48881882329F0E8
:10113000853E91F3E7CF18160CF420E0822FDF9163
:10114000CF911F910F91FF90EF9008958F929F92F2
:10115000AF92BF92CF92DF92EF92FF920F931F93C5
:10116000DF93CF93CDB7DEB7AD970FB6F894DEBF60
:101170000FBECDBF4C018B016A01FB0185859685B1
:10118000A785B08985839683A783B0871186128649
:1011900013861486AEE0EA2EF12CEC0EFD1E5E01E5
:1011A0000894A11CB11C12C0C701B5010E94C40360
:1011B000C501B6010E943001892B41F4F801618913
:1011C0007289C401A7010E94E80607C0C801B701DF
:1011D0000E947108181644F380E0AD960FB6F8949B
:1011E000DEBF0FBECDBFCF91DF911F910F91FF905A
:1011F000EF90DF90CF90BF90AF909F908F90089529
:10120000FF920F931F93CF93DF93EC010E947F0F08
:101210008B01FF24FA940AC00E947F0F601B710BA0
:101220006D52714018F08DE08C830EC0FEBC0DB481
:1012300007FEFDCF9EB59F3F79F39E3F11F481E0FD
:1012400004C080E18C839D8380E0DF91CF911F916A
:101250000F91FF900895FF920F931F93CF93DF9309
:101260008B010E947F0FEB01FF24FA9409C00E94BA
:101270007F0F6C1B7D0B0617170710F480E008C06A
:10128000FEBC0DB407FEFDCF8EB58F3F81F781E028
:10129000DF91CF911F910F91FF900895CF93DF932E
:1012A000EC018E81882301F18FEF8EBD2F8138856F
:1012B0004FEF04C00DB407FEFDCF4EBD2F5F3F4F73
:1012C000C901019781509240A8F338872F830DB44C
:1012D00007FEFDCF8AE061E00E9469108FEF8EBDAE
:1012E0000DB407FEFDCF1E82DF91CF910895BF920E
:1012F000CF92DF92EF92FF920F931F938C01B62E45
:1013000069017A010E944E098AE060E00E9469103A
:10131000C8016CE271E00E942B098B2D80648EBDA8
:101320000DB407FEFDCF28E130E0D701C601022E43
:1013300004C0B695A795979587950A94D2F78EBD68
:101340000DB407FEFDCF285030408FEF283F3807FF
:1013500061F7BB2011F485E906C088E0B81611F4E6
:1013600087E801C08FEF8EBD0DB407FEFDCF9FEF64
:101370002FEF2EBD0DB407FEFDCF8EB587FF04C045
:10138000992311F09150F5CF1F910F91FF90EF909D
:10139000DF90CF90BF9008958F929F92AF92BF92AF
:1013A000CF92DF92EF92FF920F931F93CF93DF9331
:1013B000EC015A016B014901E114F10409F475C013
:1013C000C701820F931F8150924008F070C08E8138
:1013D000882371F088819981AA81BB8148175907B8
:1013E0006A077B0729F48F8198858816990618F576
:1013F000A882B982CA82DB828B85833039F089E08A
:10140000AA0CBB1CCC1CDD1C8A95D1F7CE0161E176
:10141000A60195010E947709882319F083E08C8347
:1014200046C0CE010E940009882309F440C01886F6
:101430001F8281E08E838FEF8EBD8F8198852FEF85
:1014400005C00DB407FEFDCF2EBD01968815990588
:10145000C0F398878F83D701119720E030E09FEF8A
:101460000BC00DB407FEFDCF8EB5F801E20FF31FE0
:1014700080839EBD2F5F3F4F2A173B0790F30DB42B
:1014800007FEFDCF8EB5A00FB11F8C932F8138853D
:101490002E0D3F1D38872F838985882319F0205012
:1014A000324018F0CE010E944E0981E001C080E078
:1014B000DF91CF911F910F91FF90EF90DF90CF9030
:1014C000BF90AF909F908F900895FF920F931F93BE
:1014D000CF93DF93EC01F62E8AE061E00E94431087
:1014E0008AE061E00E9469108BE061E00E94431095
:1014F0008CE060E00E9443108DE061E00E944310A8
:1015000082E58CBD80E09FEF9EBD0DB407FEFDCF50
:101510008F5F8A30C9F760E00E94691080E090E038
:101520002FEF2EBD0DB407FEFDCF3EB5019632E084
:1015300081309307B1F710E0CE0160E020E030E0A9
:1015400040E050E00E947709082F813041F01A30C6
:1015500021F481E08C830D831CC01F5FEDCFCE0191
:1015600068E02AEA31E040E050E00E947709982FD5
:101570008130A1F480E02FEF2EBD0DB407FEFDCF2A
:101580009EB58F5F8430C1F79A3A29F089E08C8349
:101590009D8380E067C082E08B8707C082FF02C026
:1015A0000B8703C082E08C839D830E947F0F8B0199
:1015B000CE0167E320E030E040E050E00E94770990
:1015C0008B85823029F020E030E040E050E004C01C
:1015D00020E030E040E050E4CE0169E20E9477096B
:1015E000882349F00E947F0F601B710B615D77407B
:1015F000F8F286E00EC08B85823011F5CE016AE3E9
:1016000020E030E040E050E00E947709882319F0A4
:1016100085E08C83BECF8FEF8EBD0DB407FEFDCF6E
:101620008EB5807C803C11F483E08B8780E09FEF57
:101630009EBD0DB407FEFDCF2EB58F5F8330C1F781
:101640008CB58C7F8CBDFF2019F48DB581608DBD6C
:101650008AE061E00E9469108FEF8EBD0DB407FE35
:10166000FDCF81E0DF91CF911F910F91FF90089501
:101670001F920F920FB60F9211242F933F938F93C7
:101680009F93AF93BF93EF93FF93E0911E02F0916E
:101690001F02309709F4CEC0209122063091230614
:1016A00080912006909121062817390708F44BC035
:1016B00080912806813029F5209124063091250655
:1016C00030932306209322068091260690912706C8
:1016D00090932106809320062052324019F480E234
:1016E00094E002C080E292E0909325068093240665
:1016F00082E08093280680916F00846080936F0061
:1017000022C0833059F480916F008D7F80936F00E9
:10171000128610921F0210921E028CC08681978141
:10172000A085B1850097A105B10509F483C0838523
:101730009485A585B6850196A11DB11D83879487E3
:10174000A587B68777C08581E0912206F0912306B0
:10175000803149F48181805890813296F09323063C
:10176000E093220606C08191F0932306E0932206BF
:1017700090E05A985C985B9A5B985B9A5B985C9A4D
:101780005B9A5B985B9A5B9887FF02C05C9A01C08A
:101790005C985B9A5B9886FF02C05C9A01C05C987B
:1017A0005B9A5B9885FF02C05C9A01C05C985B9A6B
:1017B0005B9884FF02C05C9A01C05C985B9A5B985E
:1017C00083FF02C05C9A01C05C985B9A5B9882FFC1
:1017D00002C05C9A01C05C985B9A5B9881FF02C072
:1017E0005C9A01C05C985B9A5B9880FF02C05C9A2F
:1017F00001C05C985B9A5B9897FF02C05C9A01C03D
:101800005C985B9A5B98892F96FF02C05C9A01C036
:101810005C985B9A5B9885FF02C05C9A01C05C98FB
:101820005B9A5B9884FF02C05C9A01C05C985B9AEB
:101830005B985A9AFF91EF91BF91AF919F918F91D1
:101840003F912F910F900FBE0F901F901895FC01A4
:10185000108A178608959A01AB01243F81E038076A
:1018600080E0480780E0580728F424EF31E040E0AA
:1018700050E00CC0213583EC380780E0480780E059
:10188000580720F020E533EC40E050E0F89486B5AE
:101890008823E9F760E074E284EF90E00E947C1412
:1018A000309389002093880078940895EFE6F0E063
:1018B00080818D7F8083E0911E02F0911F0212864D
:1018C00010921F0210921E0208954F925F926F9223
:1018D0007F928F929F92AF92BF92CF92DF92EF92C0
:1018E000FF920F931F93CF93DF932C01F894FC0189
:1018F000C785D089209709F44FC040705E7F403083
:10190000F2E05F07F0E06F07F0E07F0720F440E0CF
:1019100052E060E070E069847A848B849C84F201F8
:10192000E680F7800085118589819A81AB81BC8131
:10193000E60CF71C081D191D8E159F05A007B107A1
:1019400010F47C018D015A016B01E416F5060607BF
:10195000170710F457016801A614B704C804D90486
:1019600040F0B601A5014619570968097909CE0169
:1019700006C0CE010E94E503CE01B601A5010E947A
:10198000A207882349F0EA18FB080C091D09F20197
:10199000E682F782008711877894DF91CF911F91BB
:1019A0000F91FF90EF90DF90CF90BF90AF909F90FE
:1019B0008F907F906F905F904F900895AF92BF92FD
:1019C000CF92DF92EF92FF920F931F93DF93CF930B
:1019D000CDB7DEB728970FB6F894DEBF0FBECDBFE8
:1019E0008C016B01B42EA52EFC0186819781A08508
:1019F000B1850097A105B10579F57E010894E11C38
:101A0000F11CD8011F968D919C915097B70148E029
:101A100050E00E9432080897E1F4C70160E071E0ED
:101A200044E050E00E9443014D815E816F817885E2
:101A3000009731F4F80146835783608771870CC0A3
:101A4000D8011F968D919C9150970E94A2078823E0
:101A5000C1F66FEF7FEF40C0F80167857089DB0149
:101A600019968D919C911A97917040E052E0481B15
:101A7000590B2B2D3A2DC901FC014817590708F4C1
:101A8000FA01D80116962D913D914D915C911997CF
:101A9000CF01A0E0B0E0281739074A075B0708F438
:101AA000F901CB01B601AF010E943208BC01181642
:101AB000190694F49C01442737FD4095542FF801F2
:101AC00086819781A085B185821B930BA40BB50BF2
:101AD00086839783A087B187CB0128960FB6F894A9
:101AE000DEBF0FBECDBFCF91DF911F910F91FF9051
:101AF000EF90DF90CF90BF90AF9008950F931F931A
:101B0000CF93DF93EC0190931F0280931E0200E2BB
:101B100012E0B80140E052E00E94DE0C18161906EF
:101B20000CF04EC01093230600932206800F911FE5
:101B3000909321068093200600E214E0CE01B801C4
:101B400040E052E00E94DE0C97FD3AC0109325065B
:101B500000932406800F911F9093270680932606FA
:101B600081E0809328068A87529A539A549A5A9A07
:101B7000559A5D981092800089E080938100688179
:101B800070E080E090E029813A814B815C810E9485
:101B90003E149B01AC0160E074E284EF90E00E948F
:101BA0007C14309389002093880081E090E090932A
:101BB0008B0080938A0080916F00826080936F0019
:101BC000DF91CF911F910F9108951F920F920FB641
:101BD0000F9211242F933F934F935F936F937F93B3
:101BE0008F939F93AF93BF93EF93FF9380916F0079
:101BF0008B7F80936F0080912806823021F5789446
:101C0000609124067091250680911E0290911F021A
:101C100040E052E00E94DE0CF894209124063091BE
:101C200025061816190644F4280F391F3093270685
:101C30002093260681E005C03093270620932606D0
:101C400083E080932806FF91EF91BF91AF919F9120
:101C50008F917F916F915F914F913F912F910F9055
:101C60000FBE0F901F901895CF92DF92EF92FF92C8
:101C70000F931F93DF93CF93CDB7DEB762970FB665
:101C8000F894DEBF0FBECDBF7C016B01CB010E947B
:101C90008707C6018E010F5F1F4FB8014CE050E06F
:101CA0000E9432080C9709F092C0C80165E071E00B
:101CB00044E050E00E944301009709F088C0CE0143
:101CC00009966AE071E044E050E00E944301009709
:101CD00009F07DC08CC0C8016FE071E044E050E0C5
:101CE0000E944301009709F072C08AC002311105B9
:101CF00061F4C601BE016F5F7F4FA8010E943208E8
:101D00008017910709F063C002C01A821982898185
:101D10009A81019739F40231110539F489899A8938
:101D2000892B19F084E991E050C08B81F701808301
:101D3000833018F083E891E048C0823021F48DE6CA
:101D400091E00E94300F1F85F7011583113118F0C3
:101D50008FE491E03AC02D813E814F815885F70193
:101D60002183328343835483608170E080E090E07C
:101D70000E943E146534FCEA7F07F0E08F07F0E034
:101D80009F07A8F4212F30E040E050E00E943E146D
:101D900023E096958795779567952A95D1F76938C9
:101DA00028E5720721E0820720E0920718F089E316
:101DB00091E00BC065547C4A8040904040F1F601B0
:101DC000808183FD24C08EE191E00E94300F80E08D
:101DD00062960FB6F894DEBF0FBECDBFCF91DF91F4
:101DE0001F910F91FF90EF90DF90CF900895C60163
:101DF000B80148E050E00E943208089741F76BCFE5
:101E00000D811E810031110509F070CF72CFF701ED
:101E1000D08AC78613861486158616861286168281
:101E2000178210861186C70160E070E040E050E044
:101E30000E94DE0C892F8095881F8827881FC8CFB5
:101E4000CF93DF93EC0105C08AEB96E00E9440122D
:101E50002196FE0164916623B9F7DF91CF91089531
:101E60000E94200F8AEB96E00E94051308951F92AE
:101E70000F920FB60F9211242F933F938F939F933E
:101E8000AF93BF9380912D0690912E06A0912F06BF
:101E9000B0913006309131060196A11DB11D232F5E
:101EA0002D5F2D3720F02D570196A11DB11D2093D8
:101EB000310680932D0690932E06A0932F06B093A3
:101EC00030068091290690912A06A0912B06B091A8
:101ED0002C060196A11DB11D8093290690932A0618
:101EE000A0932B06B0932C06BF91AF919F918F9139
:101EF0003F912F910F900FBE0F901F9018958FB7A5
:101F0000F89420912D0630912E0640912F06509185
:101F100030068FBFB901CA0108959B01AC017FB79C
:101F2000F8948091290690912A06A0912B06B091F1
:101F30002C0666B5A89B05C06F3F19F00196A11D40
:101F4000B11D7FBFBA2FA92F982F8827860F911D0B
:101F5000A11DB11D62E0880F991FAA1FBB1F6A95C2
:101F6000D1F7BC012DC0FFB7F8948091290690915C
:101F70002A06A0912B06B0912C06E6B5A89B05C0B9
:101F8000EF3F19F00196A11DB11DFFBFBA2FA92F78
:101F9000982F88278E0F911DA11DB11DE2E0880F9B
:101FA000991FAA1FBB1FEA95D1F7861B970B885E66
:101FB0009340C8F2215030404040504068517C4F1F
:101FC000211531054105510571F60895789484B5C0
:101FD000826084BD84B5816084BD85B5826085BD25
:101FE00085B5816085BDEEE6F0E08081816080830B
:101FF000E1E8F0E0108280818260808380818160EE
:102000008083E0E8F0E0808181608083E1EBF0E0B4
:10201000808184608083E0EBF0E080818160808358
:10202000EAE7F0E080818460808380818260808341
:102030008081816080838081806880831092C1006C
:102040000895982F8E3008F09E50977080917E01F1
:102050008295880F880F807C892B80937C008091EB
:102060007A00806480937A0080917A0086FDFCCFAC
:102070002091780040917900942F80E030E0282B67
:10208000392BC9010895482F50E0CA0180529E4F54
:10209000FC01249144535E4FFA0184918823C1F0DE
:1020A000E82FF0E0EE0FFF1FE255FE4FA591B4912F
:1020B000662341F49FB7F8948C91209582238C93EA
:1020C0009FBF08959FB7F8948C91822B8C939FBFEC
:1020D0000895482F50E0CA018C509E4FFC01249176
:1020E000CA0180529E4FFC01949144535E4FFA0105
:1020F0003491332309F440C0222351F1233071F08D
:10210000243028F42130A1F0223011F514C02630FB
:10211000B1F02730C1F02430D9F404C080918000A0
:102120008F7703C0809180008F7D8093800010C0E6
:1021300084B58F7702C084B58F7D84BD09C080913E
:10214000B0008F7703C08091B0008F7D8093B00086
:10215000E32FF0E0EE0FFF1FE854FE4FA591B4917E
:102160002FB7F894662321F48C919095892302C0AF
:102170008C91892B8C932FBF089508951F920F92F5
:102180000FB60F9211242F933F934F938F939F93EA
:10219000EF93FF934091C600209172063091730631
:1021A0002F5F3F4F2F7330708091740690917506AA
:1021B0002817390759F0E0917206F0917306EE5C2A
:1021C000F94F40833093730620937206FF91EF918D
:1021D0009F918F914F913F912F910F900FBE0F9034
:1021E0001F901895E091C606F091C706E05CFF4F7E
:1021F0008191919120813181821B930B8F7390701B
:10220000892B11F00E94BD1008951F920F920FB6F6
:102210000F9211242F933F934F935F936F937F936C
:102220008F939F93AF93BF93EF93FF932091B60645
:102230003091B7068091B8069091B90628173907F2
:1022400031F48091C1008F7D8093C10016C0E09170
:10225000B806F091B906EA58F94F40818091B80666
:102260009091B906019660E470E00E946914909321
:10227000B9068093B8064093C600FF91EF91BF91D5
:10228000AF919F918F917F916F915F914F913F910E
:102290002F910F900FBE0F901F901895AF92BF9285
:1022A000DF92EF92FF920F931F93CF93DF93EC0196
:1022B0007A018B01DD24403081EE580780E0680709
:1022C00080E0780711F0DD24D39491E0A92EB12CA1
:1022D000EC89FD89DD2069F0C5010E8C02C0880FF4
:1022E000991F0A94E2F7808360E079E08DE390E043
:1022F00005C0108260E874E88EE190E0A8019701C3
:102300000E947C14215030404040504056954795E3
:102310003795279580E12030380720F0DD2011F037
:10232000DD24D6CFE889F9893083EA89FB892083C7
:10233000EE89FF89408121E030E0C9010A8C02C0AA
:10234000880F991F0A94E2F7482B4083EE89FF8992
:102350004081C9010B8C02C0880F991F0A94E2F7D3
:10236000482B4083EE89FF894081C9010C8C02C053
:10237000880F991F0A94E2F7482B4083EE89FF8962
:1023800080810D8C02C0220F331F0A94E2F7209542
:1023900028232083DF91CF911F910F91FF90EF9021
:1023A000DF90BF90AF900895DC011C96ED91FC91F9
:1023B0001D97E05CFF4F2191319180819181281B15
:1023C000390B2F733070C9010895DC011C96ED9113
:1023D000FC911D97E05CFF4F20813181E054F0407B
:1023E000DF01AE5BBF4F8D919C9111972817390784
:1023F00019F42FEF3FEF07C08D919C91E80FF91F63
:102400008081282F30E0C9010895DC011C96ED91F0
:10241000FC911D97E05CFF4F20813181E054F0403A
:10242000DF01AE5BBF4F8D919C9111972817390743
:1024300019F42FEF3FEF10C08D919C911197E80F89
:10244000F91F20818D919C91119701968F73907047
:1024500011969C938E9330E0C9010895FC01868506
:102460009785DC01A05CBF4FFC01EE5BFF4F2D9117
:102470003C9111978081918128173907C1F7089500
:10248000CF93DF93EC01462FEE85FF85E05CFF4F95
:1024900080819181E054F040019660E470E00E94F8
:1024A00069149C01DF01AE5BBF4F8D919C91119728
:1024B00028173907D1F3E05CFF4F80819181E05408
:1024C000F040E80FF91F4083EE85FF85E05CFF4F89
:1024D00031832083EE89FF89208181E090E00D8C9B
:1024E00002C0880F991F0A94E2F7282B208381E00D
:1024F00090E0DF91CF9108951092BD061092BC0636
:1025000088EE93E0A0E0B0E08093BE069093BF0613
:10251000A093C006B093C10683E891E09093BB06F8
:102520008093BA0682E396E09093C7068093C6062E
:1025300086E796E09093C9068093C80685EC90E004
:102540009093CB068093CA0684EC90E09093CD06DE
:102550008093CC0680EC90E09093CF068093CE06DB
:1025600081EC90E09093D1068093D00686EC90E0C9
:102570009093D3068093D20684E08093D40683E0C0
:102580008093D50687E08093D60685E08093D706B2
:1025900081E08093D8060895CF93DF930E94E60FE1
:1025A0000E942103C2EFD0E10E94A0012097E1F335
:1025B0000E94F210F9CFCF92DF92EF92FF920F9329
:1025C0001F93CF93DF937C016B018A01C0E0D0E0C1
:1025D0000FC0D6016D916D01D701ED91FC91019075
:1025E000F081E02DC7010995C80FD91F0150104097
:1025F0000115110571F7CE01DF91CF911F910F9158
:10260000FF90EF90DF90CF900895EF92FF920F939D
:102610001F938C01DC01ED91FC910190F081E02D84
:102620006DE009957C01D801ED91FC910190F0815C
:10263000E02DC8016AE009959C012E0D3F1DC901DE
:102640001F910F91FF90EF900895CF93DF93DB01DF
:102650000D900020E9F71197A61BB70BEC01E8815C
:10266000F9810280F381E02DAD010995DF91CF91D1
:1026700008954F925F927F928F929F92AF92BF92F6
:10268000CF92DF92EF92FF920F931F93DF93CF933E
:10269000CDB7DEB7A1970FB6F894DEBF0FBECDBFA2
:1026A0002C01742ECB01223008F42AE019A231E269
:1026B000C32ED12CCC0EDD1E822E9924AA24BB243D
:1026C000672D752FA50194010E947C1479018A0160
:1026D000C801B701A50194010E943E14472D461B75
:1026E0000894C108D1084A3014F4405D01C0495C27
:1026F000F6014083E114F1040105110521F07E2C5F
:102700005F2DC801DDCFC201B6010E942513A1963D
:102710000FB6F894DEBF0FBECDBFCF91DF911F91F2
:102720000F91FF90EF90DF90CF90BF90AF909F9070
:102730008F907F905F904F900895DC0121153105B7
:1027400041F4ED91FC910190F081E02D642F099509
:1027500008950E9439130895EF92FF920F931F93EB
:102760009A01E62EFF2400E010E0B801A7010E94C4
:102770009D131F910F91FF90EF900895CF92DF92DC
:10278000EF92FF920F931F936C01E62E9A01FF24A4
:1027900000E010E0B801A7010E949D138C01C60162
:1027A0000E940513080F191FC8011F910F91FF9078
:1027B000EF90DF90CF900895CF92DF92EF92FF924B
:1027C0000F931F93CF93DF93EC016A017B012115D7
:1027D000310541F4E881F9810190F081E02D642F09
:1027E00009951FC02A303105D1F477FF17C0E88161
:1027F000F9810190F081E02D6DE209958C0144276B
:102800005527BA014C195D096E097F09CE012AE0EE
:102810000E9439139801280F391F04C02AE00E9432
:1028200039139C01C901DF91CF911F910F91FF9046
:10283000EF90DF90CF900895CF92DF92EF92FF92CA
:102840000F931F936C017B019A010027F7FC009501
:10285000102FB801A7010E94DC138C01C6010E9451
:102860000513080F191FC8011F910F91FF90EF90DA
:10287000DF90CF9008950E9425130895629FD001A4
:10288000739FF001829FE00DF11D649FE00DF11D2B
:10289000929FF00D839FF00D749FF00D659FF00DDA
:1028A0009927729FB00DE11DF91F639FB00DE11DC7
:1028B000F91FBD01CF0111240895991B79E004C0CF
:1028C000991F961708F0961B881F7A95C9F780956F
:1028D000089597FB092E07260AD077FD04D02ED045
:1028E00006D000201AF4709561957F4F0895F6F791
:1028F000909581959F4F0895A1E21A2EAA1BBB1BAC
:10290000FD010DC0AA1FBB1FEE1FFF1FA217B307BB
:10291000E407F50720F0A21BB30BE40BF50B661FD1
:10292000771F881F991F1A9469F760957095809595
:1029300090959B01AC01BD01CF010895AA1BBB1B63
:1029400051E107C0AA1FBB1FA617B70710F0A61BAF
:10295000B70B881F991F5A95A9F780959095BC01D0
:10296000CD010895EE0FFF1F0590F491E02D09941D
:04297000F894FFCF09
:1029740064617461005249464600574156450066F9
:102984006D74200030312E5741560030322E57419D
:10299400560030332E5741560030342E57415600DE
:1029A40030352E5741560030362E574156003037B9
:1029B4002E5741560030382E5741560030392E5785
:1029C40041560031302E5741560031312E57415671
:1029D4000031322E5741560031332E5741560031C3
:1029E400342E5741560031352E57415600FF010011
:1029F4000000004012DB12D4110512E5112E120062
:00000001FF
